{
  "transactions": [
    {
      "hash": "0xaded94146380188494c0e41d3c26ec1bdf2fbd56c500ba5cef198799dc83f060",
      "transactionType": "CALL",
      "contractName": null,
      "contractAddress": "0x88C67b0510F576a539ecc9dBF571f6E0B0B89Bf3",
      "function": null,
      "arguments": null,
      "transaction": {
        "type": "0x02",
        "from": "0xb0be073cb0b350b26e432808f78d19e8447dd6dd",
        "to": "0x88c67b0510f576a539ecc9dbf571f6e0b0b89bf3",
        "gas": "0x110a7",
        "value": "0x0",
        "data": "0x1c10893f000000000000000000000000eae422887230c0ffb91fd8f708f5fdd354c92f2f0000000000000000000000000000000000000000000000000000000000000002",
        "nonce": "0x12",
        "accessList": []
      },
      "additionalContracts": []
    },
    {
      "hash": "0x17858898ee1da1da8db3a304361b72788bcb18638546725d1a163199c18541aa",
      "transactionType": "CALL",
      "contractName": "MerkleDropMinter",
      "contractAddress": "0xeae422887230C0FFB91Fd8F708f5fdD354C92F2F",
      "function": "createEditionMint(address,bytes32,uint96,uint32,uint32,uint16,uint32,uint32):(uint128)",
      "arguments": [
        "0x88C67b0510F576a539ecc9dBF571f6E0B0B89Bf3",
        "0x300553b4ba80acf94444e931c71e13c74335ca9a131aaba39339ef7aa8cc8ca3",
        "800000000000000",
        "1666286280",
        "1668878280",
        "0",
        "888",
        "100"
      ],
      "transaction": {
        "type": "0x02",
        "from": "0xb0be073cb0b350b26e432808f78d19e8447dd6dd",
        "to": "0xeae422887230c0ffb91fd8f708f5fdd354c92f2f",
        "gas": "0x27bb3",
        "value": "0x0",
        "data": "0xc309c47d00000000000000000000000088c67b0510f576a539ecc9dbf571f6e0b0b89bf3300553b4ba80acf94444e931c71e13c74335ca9a131aaba39339ef7aa8cc8ca30000000000000000000000000000000000000000000000000002d79883d2000000000000000000000000000000000000000000000000000000000000635182c80000000000000000000000000000000000000000000000000000000063790fc8000000000000000000000000000000000000000000000000000000000000000000000000000000000000000000000000000000000000000000000000000003780000000000000000000000000000000000000000000000000000000000000064",
        "nonce": "0x13",
        "accessList": []
      },
      "additionalContracts": []
    }
  ],
  "receipts": [
    {
      "transactionHash": "0xaded94146380188494c0e41d3c26ec1bdf2fbd56c500ba5cef198799dc83f060",
      "transactionIndex": "0x30",
      "blockHash": "0x3febd72322de871b9923a2a61fa1e3c46d59ea988e8c1ae593772766d377aefc",
      "blockNumber": "0x77133d",
      "from": "0xb0bE073cB0B350B26e432808F78d19E8447DD6DD",
      "to": "0x88C67b0510F576a539ecc9dBF571f6E0B0B89Bf3",
      "cumulativeGasUsed": "0x438955",
      "gasUsed": "0xc566",
      "contractAddress": null,
      "logs": [
        {
          "address": "0x88C67b0510F576a539ecc9dBF571f6E0B0B89Bf3",
          "topics": [
            "0x715ad5ce61fc9595c7b415289d59cf203f23a94fa06f04af7e489a0a76e1fe26",
            "0x000000000000000000000000eae422887230c0ffb91fd8f708f5fdd354c92f2f",
            "0x0000000000000000000000000000000000000000000000000000000000000002"
          ],
          "data": "0x",
          "blockHash": "0x3febd72322de871b9923a2a61fa1e3c46d59ea988e8c1ae593772766d377aefc",
          "blockNumber": "0x77133d",
          "transactionHash": "0xaded94146380188494c0e41d3c26ec1bdf2fbd56c500ba5cef198799dc83f060",
          "transactionIndex": "0x30",
          "logIndex": "0x33",
          "removed": false
        }
      ],
      "status": "0x1",
      "logsBloom": "0x04000000000000000000000000000000000000000000000000000000000000000000000000000000000000000000000000000000000000000000000000000000000010000000000000000000000000000000000000000000000000020000000000000000000000000000000000000000000000000000000000000000000000000000000004004000000000000000000000000000000000000000000000000000000000000000000000000100000000000000000000010000000000000000000000002000400000000000000000000008000000000000000000000000000000000000000000000000000001000000000000000000008000000000000000000000",
      "type": "0x2",
      "effectiveGasPrice": "0x2a3404976"
    },
    {
      "transactionHash": "0x17858898ee1da1da8db3a304361b72788bcb18638546725d1a163199c18541aa",
      "transactionIndex": "0x31",
      "blockHash": "0x3febd72322de871b9923a2a61fa1e3c46d59ea988e8c1ae593772766d377aefc",
      "blockNumber": "0x77133d",
      "from": "0xb0bE073cB0B350B26e432808F78d19E8447DD6DD",
      "to": "0xeae422887230C0FFB91Fd8F708f5fdD354C92F2F",
      "cumulativeGasUsed": "0x453c00",
      "gasUsed": "0x1b2ab",
      "contractAddress": null,
      "logs": [
        {
          "address": "0xeae422887230C0FFB91Fd8F708f5fdD354C92F2F",
          "topics": [
            "0xeeb5941fb79bbfe40edd76c2e086e8ccdb0b463fc8ac07416266100b4dfddccf",
            "0x00000000000000000000000088c67b0510f576a539ecc9dbf571f6e0b0b89bf3",
            "0x000000000000000000000000b0be073cb0b350b26e432808f78d19e8447dd6dd"
          ],
          "data": "0x000000000000000000000000000000000000000000000000000000000000000f00000000000000000000000000000000000000000000000000000000635182c80000000000000000000000000000000000000000000000000000000063790fc80000000000000000000000000000000000000000000000000000000000000000",
          "blockHash": "0x3febd72322de871b9923a2a61fa1e3c46d59ea988e8c1ae593772766d377aefc",
          "blockNumber": "0x77133d",
          "transactionHash": "0x17858898ee1da1da8db3a304361b72788bcb18638546725d1a163199c18541aa",
          "transactionIndex": "0x31",
          "logIndex": "0x34",
          "removed": false
        },
        {
          "address": "0xeae422887230C0FFB91Fd8F708f5fdD354C92F2F",
          "topics": [
            "0xd9faafd9b789bcd20399f1fafa1c6459996ac840e9177ee687c23cdbe3b7a9cb",
            "0x00000000000000000000000088c67b0510f576a539ecc9dbf571f6e0b0b89bf3",
            "0x000000000000000000000000000000000000000000000000000000000000000f"
          ],
          "data": "0x300553b4ba80acf94444e931c71e13c74335ca9a131aaba39339ef7aa8cc8ca30000000000000000000000000000000000000000000000000002d79883d2000000000000000000000000000000000000000000000000000000000000635182c80000000000000000000000000000000000000000000000000000000063790fc8000000000000000000000000000000000000000000000000000000000000000000000000000000000000000000000000000000000000000000000000000003780000000000000000000000000000000000000000000000000000000000000064",
          "blockHash": "0x3febd72322de871b9923a2a61fa1e3c46d59ea988e8c1ae593772766d377aefc",
          "blockNumber": "0x77133d",
          "transactionHash": "0x17858898ee1da1da8db3a304361b72788bcb18638546725d1a163199c18541aa",
          "transactionIndex": "0x31",
          "logIndex": "0x35",
          "removed": false
        }
      ],
      "status": "0x1",
      "logsBloom": "0x00000000000000000000000000000001000000000000000000000000000400000000000000000000000000000000200000000000000000000000000080000000000080002000000000000000000000000000000000000000000000000002000000000000000000000000000000000000000000020000000000004000000880000000000000000800000000000000000000000000000010000000000000000000000000000000000000000000000100000000000000000000000000000000000000000001000000000000000000000000000008000000000000000000000000000000000200000000000000000000000000000000000000000000000000080000",
      "type": "0x2",
      "effectiveGasPrice": "0x2a3404976"
    }
  ],
  "libraries": [],
  "pending": [],
  "path": "/Users/isaacpatka/Music/dev/sound-protocol/broadcast/NewEdition.s.sol/5/run-latest.json",
  "returns": {},
  "timestamp": 1666286322,
  "commit": "d40669e"
}